{
  "contractName": "AnonymousVoting",
  "abi": [
    {
      "inputs": [
        {
          "internalType": "address",
          "name": "_identityManager",
          "type": "address"
        },
        {
          "internalType": "bytes32[]",
          "name": "proposalNames",
          "type": "bytes32[]"
        },
        {
          "internalType": "uint32",
          "name": "_votingDuration",
          "type": "uint32"
        }
      ],
      "stateMutability": "nonpayable",
      "type": "constructor"
    },
    {
      "anonymous": false,
      "inputs": [
        {
          "indexed": true,
          "internalType": "uint8",
          "name": "proposalIndex",
          "type": "uint8"
        },
        {
          "indexed": false,
          "internalType": "uint32",
          "name": "newVoteCount",
          "type": "uint32"
        }
      ],
      "name": "VoteCast",
      "type": "event"
    },
    {
      "inputs": [],
      "name": "identityManager",
      "outputs": [
        {
          "internalType": "contract IdentityManager",
          "name": "",
          "type": "address"
        }
      ],
      "stateMutability": "view",
      "type": "function",
      "constant": true
    },
    {
      "inputs": [],
      "name": "proposalCount",
      "outputs": [
        {
          "internalType": "uint8",
          "name": "",
          "type": "uint8"
        }
      ],
      "stateMutability": "view",
      "type": "function",
      "constant": true
    },
    {
      "inputs": [],
      "name": "votingEnd",
      "outputs": [
        {
          "internalType": "uint32",
          "name": "",
          "type": "uint32"
        }
      ],
      "stateMutability": "view",
      "type": "function",
      "constant": true
    },
    {
      "inputs": [
        {
          "internalType": "uint8",
          "name": "proposalIndex",
          "type": "uint8"
        }
      ],
      "name": "vote",
      "outputs": [],
      "stateMutability": "nonpayable",
      "type": "function"
    },
    {
      "inputs": [
        {
          "internalType": "uint8",
          "name": "index",
          "type": "uint8"
        }
      ],
      "name": "getProposal",
      "outputs": [
        {
          "internalType": "bytes32",
          "name": "name",
          "type": "bytes32"
        },
        {
          "internalType": "uint32",
          "name": "voteCount",
          "type": "uint32"
        }
      ],
      "stateMutability": "view",
      "type": "function",
      "constant": true
    }
  ],
  "bytecode": "0x60e06040523480156200001157600080fd5b506040516200111c3803806200111c833981810160405281019062000037919062000448565b600073ffffffffffffffffffffffffffffffffffffffff168373ffffffffffffffffffffffffffffffffffffffff1603620000a9576040517f08c379a0000000000000000000000000000000000000000000000000000000008152600401620000a09062000524565b60405180910390fd5b60008251118015620000bd57506005825111155b620000ff576040517f08c379a0000000000000000000000000000000000000000000000000000000008152600401620000f69062000596565b60405180910390fd5b8273ffffffffffffffffffffffffffffffffffffffff1660808173ffffffffffffffffffffffffffffffffffffffff1681525050815160ff1660a08160ff16815250508063ffffffff1642620001569190620005f1565b63ffffffff1660c08163ffffffff168152505060005b60a05160ff168160ff161015620001d457828160ff16815181106200019657620001956200062c565b5b6020026020010151600160008360ff1660ff168152602001908152602001600020600001819055508080620001cb9062000668565b9150506200016c565b5050505062000696565b6000604051905090565b600080fd5b600080fd5b600073ffffffffffffffffffffffffffffffffffffffff82169050919050565b60006200021f82620001f2565b9050919050565b620002318162000212565b81146200023d57600080fd5b50565b600081519050620002518162000226565b92915050565b600080fd5b6000601f19601f8301169050919050565b7f4e487b7100000000000000000000000000000000000000000000000000000000600052604160045260246000fd5b620002a7826200025c565b810181811067ffffffffffffffff82111715620002c957620002c86200026d565b5b80604052505050565b6000620002de620001de565b9050620002ec82826200029c565b919050565b600067ffffffffffffffff8211156200030f576200030e6200026d565b5b602082029050602081019050919050565b600080fd5b6000819050919050565b6200033a8162000325565b81146200034657600080fd5b50565b6000815190506200035a816200032f565b92915050565b6000620003776200037184620002f1565b620002d2565b905080838252602082019050602084028301858111156200039d576200039c62000320565b5b835b81811015620003ca5780620003b5888262000349565b8452602084019350506020810190506200039f565b5050509392505050565b600082601f830112620003ec57620003eb62000257565b5b8151620003fe84826020860162000360565b91505092915050565b600063ffffffff82169050919050565b620004228162000407565b81146200042e57600080fd5b50565b600081519050620004428162000417565b92915050565b600080600060608486031215620004645762000463620001e8565b5b6000620004748682870162000240565b935050602084015167ffffffffffffffff811115620004985762000497620001ed565b5b620004a686828701620003d4565b9250506040620004b98682870162000431565b9150509250925092565b600082825260208201905092915050565b7f496e76616c696420494d20616464726573730000000000000000000000000000600082015250565b60006200050c601283620004c3565b91506200051982620004d4565b602082019050919050565b600060208201905081810360008301526200053f81620004fd565b9050919050565b7f496e76616c69642070726f706f73616c20636f756e7400000000000000000000600082015250565b60006200057e601683620004c3565b91506200058b8262000546565b602082019050919050565b60006020820190508181036000830152620005b1816200056f565b9050919050565b6000819050919050565b7f4e487b7100000000000000000000000000000000000000000000000000000000600052601160045260246000fd5b6000620005fe82620005b8565b91506200060b83620005b8565b9250828201905080821115620006265762000625620005c2565b5b92915050565b7f4e487b7100000000000000000000000000000000000000000000000000000000600052603260045260246000fd5b600060ff82169050919050565b600062000675826200065b565b915060ff82036200068b576200068a620005c2565b5b600182019050919050565b60805160a05160c051610a3a620006e260003960008181610129015261014d015260008181610241015281816104aa01526104d101526000818161010501526102ac0152610a3a6000f3fe608060405234801561001057600080fd5b50600436106100575760003560e01c806375495e901461005c57806385a386351461007a578063b3f98adc14610098578063da35c664146100b4578063dac001fe146100d2575b600080fd5b610064610103565b60405161007191906105f7565b60405180910390f35b610082610127565b60405161008f9190610631565b60405180910390f35b6100b260048036038101906100ad919061068a565b61014b565b005b6100bc6104a8565b6040516100c991906106c6565b60405180910390f35b6100ec60048036038101906100e7919061068a565b6104cc565b6040516100fa9291906106fa565b60405180910390f35b7f000000000000000000000000000000000000000000000000000000000000000081565b7f000000000000000000000000000000000000000000000000000000000000000081565b7f000000000000000000000000000000000000000000000000000000000000000063ffffffff1642106101b3576040517f08c379a00000000000000000000000000000000000000000000000000000000081526004016101aa90610780565b60405180910390fd5b6000803373ffffffffffffffffffffffffffffffffffffffff1673ffffffffffffffffffffffffffffffffffffffff16815260200190815260200160002060009054906101000a900460ff161561023f576040517f08c379a0000000000000000000000000000000000000000000000000000000008152600401610236906107ec565b60405180910390fd5b7f000000000000000000000000000000000000000000000000000000000000000060ff168160ff16106102a7576040517f08c379a000000000000000000000000000000000000000000000000000000000815260040161029e90610858565b60405180910390fd5b6000807f000000000000000000000000000000000000000000000000000000000000000073ffffffffffffffffffffffffffffffffffffffff1663e95cccb1336040518263ffffffff1660e01b81526004016103039190610899565b6040805180830381865afa15801561031f573d6000803e3d6000fd5b505050506040513d601f19601f8201168201806040525081019061034391906108ec565b915091508180156103515750805b610390576040517f08c379a000000000000000000000000000000000000000000000000000000000815260040161038790610978565b60405180910390fd5b60016000803373ffffffffffffffffffffffffffffffffffffffff1673ffffffffffffffffffffffffffffffffffffffff16815260200190815260200160002060006101000a81548160ff021916908315150217905550600160008460ff1660ff168152602001908152602001600020600101600081819054906101000a900463ffffffff168092919060010191906101000a81548163ffffffff021916908363ffffffff160217905550508260ff167f82218a59d52fa3538ea5965a39132a18a0e7f0670419dcf5c7a20431704aa796600160008660ff1660ff16815260200190815260200160002060010160009054906101000a900463ffffffff1660405161049b9190610631565b60405180910390a2505050565b7f000000000000000000000000000000000000000000000000000000000000000081565b6000807f000000000000000000000000000000000000000000000000000000000000000060ff168360ff1610610537576040517f08c379a000000000000000000000000000000000000000000000000000000000815260040161052e906109e4565b60405180910390fd5b6000600160008560ff1660ff168152602001908152602001600020905080600001548160010160009054906101000a900463ffffffff169250925050915091565b600073ffffffffffffffffffffffffffffffffffffffff82169050919050565b6000819050919050565b60006105bd6105b86105b384610578565b610598565b610578565b9050919050565b60006105cf826105a2565b9050919050565b60006105e1826105c4565b9050919050565b6105f1816105d6565b82525050565b600060208201905061060c60008301846105e8565b92915050565b600063ffffffff82169050919050565b61062b81610612565b82525050565b60006020820190506106466000830184610622565b92915050565b600080fd5b600060ff82169050919050565b61066781610651565b811461067257600080fd5b50565b6000813590506106848161065e565b92915050565b6000602082840312156106a05761069f61064c565b5b60006106ae84828501610675565b91505092915050565b6106c081610651565b82525050565b60006020820190506106db60008301846106b7565b92915050565b6000819050919050565b6106f4816106e1565b82525050565b600060408201905061070f60008301856106eb565b61071c6020830184610622565b9392505050565b600082825260208201905092915050565b7f566f74696e6720656e6465640000000000000000000000000000000000000000600082015250565b600061076a600c83610723565b915061077582610734565b602082019050919050565b600060208201905081810360008301526107998161075d565b9050919050565b7f416c726561647920766f74656400000000000000000000000000000000000000600082015250565b60006107d6600d83610723565b91506107e1826107a0565b602082019050919050565b60006020820190508181036000830152610805816107c9565b9050919050565b7f496e76616c69642070726f706f73616c00000000000000000000000000000000600082015250565b6000610842601083610723565b915061084d8261080c565b602082019050919050565b6000602082019050818103600083015261087181610835565b9050919050565b600061088382610578565b9050919050565b61089381610878565b82525050565b60006020820190506108ae600083018461088a565b92915050565b60008115159050919050565b6108c9816108b4565b81146108d457600080fd5b50565b6000815190506108e6816108c0565b92915050565b600080604083850312156109035761090261064c565b5b6000610911858286016108d7565b9250506020610922858286016108d7565b9150509250929050565b7f4e6f742076657269666965640000000000000000000000000000000000000000600082015250565b6000610962600c83610723565b915061096d8261092c565b602082019050919050565b6000602082019050818103600083015261099181610955565b9050919050565b7f496e76616c696420696e64657800000000000000000000000000000000000000600082015250565b60006109ce600d83610723565b91506109d982610998565b602082019050919050565b600060208201905081810360008301526109fd816109c1565b905091905056fea26469706673582212200c40a95ccead9a63d15e5a3e413710f7e5afca0b954a381f8b897d6b7e390ed564736f6c63430008110033",
  "immutableReferences": {
    "153": [
      {
        "length": 32,
        "start": 261
      },
      {
        "length": 32,
        "start": 684
      }
    ],
    "164": [
      {
        "length": 32,
        "start": 577
      },
      {
        "length": 32,
        "start": 1194
      },
      {
        "length": 32,
        "start": 1233
      }
    ],
    "166": [
      {
        "length": 32,
        "start": 297
      },
      {
        "length": 32,
        "start": 333
      }
    ]
  },
  "source": "// SPDX-License-Identifier: MIT\r\npragma solidity ^0.8.17;\r\n\r\nimport \"./IdentityManager.sol\";\r\n\r\ncontract AnonymousVoting {\r\n    struct Proposal {\r\n        bytes32 name;     \r\n        uint32 voteCount; \r\n    }\r\n    \r\n    IdentityManager public immutable identityManager;\r\n    mapping(address => bool) private hasVoted;\r\n    mapping(uint8 => Proposal) private proposals;\r\n    uint8 public immutable proposalCount;\r\n    uint32 public immutable votingEnd;\r\n    \r\n    event VoteCast(uint8 indexed proposalIndex, uint32 newVoteCount);\r\n    \r\n    constructor(\r\n        address _identityManager,\r\n        bytes32[] memory proposalNames,\r\n        uint32 _votingDuration\r\n    ) {\r\n        require(_identityManager != address(0), \"Invalid IM address\");\r\n        require(proposalNames.length > 0 && proposalNames.length <= 5, \"Invalid proposal count\");\r\n        \r\n        identityManager = IdentityManager(_identityManager);\r\n        proposalCount = uint8(proposalNames.length);\r\n        votingEnd = uint32(block.timestamp + _votingDuration);\r\n        \r\n        for (uint8 i = 0; i < proposalCount; i++) {\r\n            proposals[i].name = proposalNames[i];\r\n        }\r\n    }\r\n    \r\n    function vote(uint8 proposalIndex) public {\r\n        require(block.timestamp < votingEnd, \"Voting ended\");\r\n        require(!hasVoted[msg.sender], \"Already voted\");\r\n        require(proposalIndex < proposalCount, \"Invalid proposal\");\r\n        \r\n        (bool isRegistered, bool isVerified) = identityManager.checkIdentity(msg.sender);\r\n        require(isRegistered && isVerified, \"Not verified\");\r\n        \r\n        hasVoted[msg.sender] = true;\r\n        unchecked {\r\n            proposals[proposalIndex].voteCount++;\r\n        }\r\n        \r\n        emit VoteCast(proposalIndex, proposals[proposalIndex].voteCount);\r\n    }\r\n    \r\n    function getProposal(uint8 index) public view returns (bytes32 name, uint32 voteCount) {\r\n        require(index < proposalCount, \"Invalid index\");\r\n        Proposal storage prop = proposals[index];\r\n        return (prop.name, prop.voteCount);\r\n    }\r\n}",
  "sourcePath": "C:\\Users\\DELL\\voting-system-new-sepolia\\contracts\\AnonymousVoting.sol",
  "compiler": {
    "name": "solc",
    "version": "0.8.17+commit.8df45f5f.Emscripten.clang"
  },
  "schemaVersion": "3.4.13",
  "updatedAt": "2025-01-16T08:03:35.798Z",
  "networkType": "ethereum",
  "devdoc": {
    "kind": "dev",
    "methods": {},
    "version": 1
  },
  "userdoc": {
    "kind": "user",
    "methods": {},
    "version": 1
  }
}