{
  "contractName": "IdentityManager",
  "abi": [
    {
      "anonymous": false,
      "inputs": [
        {
          "indexed": true,
          "internalType": "address",
          "name": "user",
          "type": "address"
        },
        {
          "indexed": false,
          "internalType": "bytes32",
          "name": "hashedDocument",
          "type": "bytes32"
        }
      ],
      "name": "IdentityRegistered",
      "type": "event"
    },
    {
      "anonymous": false,
      "inputs": [
        {
          "indexed": true,
          "internalType": "address",
          "name": "user",
          "type": "address"
        }
      ],
      "name": "IdentityVerified",
      "type": "event"
    },
    {
      "anonymous": false,
      "inputs": [
        {
          "indexed": true,
          "internalType": "address",
          "name": "previousOwner",
          "type": "address"
        },
        {
          "indexed": true,
          "internalType": "address",
          "name": "newOwner",
          "type": "address"
        }
      ],
      "name": "OwnershipTransferred",
      "type": "event"
    },
    {
      "inputs": [],
      "name": "owner",
      "outputs": [
        {
          "internalType": "address",
          "name": "",
          "type": "address"
        }
      ],
      "stateMutability": "view",
      "type": "function",
      "constant": true
    },
    {
      "inputs": [],
      "name": "renounceOwnership",
      "outputs": [],
      "stateMutability": "nonpayable",
      "type": "function"
    },
    {
      "inputs": [],
      "name": "totalRegistered",
      "outputs": [
        {
          "internalType": "uint8",
          "name": "",
          "type": "uint8"
        }
      ],
      "stateMutability": "view",
      "type": "function",
      "constant": true
    },
    {
      "inputs": [
        {
          "internalType": "address",
          "name": "newOwner",
          "type": "address"
        }
      ],
      "name": "transferOwnership",
      "outputs": [],
      "stateMutability": "nonpayable",
      "type": "function"
    },
    {
      "inputs": [
        {
          "internalType": "bytes32",
          "name": "_hashedDocument",
          "type": "bytes32"
        }
      ],
      "name": "registerIdentity",
      "outputs": [],
      "stateMutability": "nonpayable",
      "type": "function"
    },
    {
      "inputs": [
        {
          "internalType": "address",
          "name": "user",
          "type": "address"
        }
      ],
      "name": "verifyIdentity",
      "outputs": [],
      "stateMutability": "nonpayable",
      "type": "function"
    },
    {
      "inputs": [
        {
          "internalType": "address",
          "name": "user",
          "type": "address"
        }
      ],
      "name": "checkIdentity",
      "outputs": [
        {
          "internalType": "bool",
          "name": "",
          "type": "bool"
        },
        {
          "internalType": "bool",
          "name": "",
          "type": "bool"
        }
      ],
      "stateMutability": "view",
      "type": "function",
      "constant": true
    }
  ],
  "bytecode": "0x608060405234801561001057600080fd5b5061002d61002261003260201b60201c565b61003a60201b60201c565b6100fe565b600033905090565b60008060009054906101000a900473ffffffffffffffffffffffffffffffffffffffff169050816000806101000a81548173ffffffffffffffffffffffffffffffffffffffff021916908373ffffffffffffffffffffffffffffffffffffffff1602179055508173ffffffffffffffffffffffffffffffffffffffff168173ffffffffffffffffffffffffffffffffffffffff167f8be0079c531659141344cd1fd0a4f28419497f9722a3daafe3b4186f6b6457e060405160405180910390a35050565b610af18061010d6000396000f3fe608060405234801561001057600080fd5b506004361061007d5760003560e01c8063927416c01161005b578063927416c0146100c6578063b5b90fd9146100e4578063e95cccb114610100578063f2fde38b146101315761007d565b8063103d9fae14610082578063715018a61461009e5780638da5cb5b146100a8575b600080fd5b61009c600480360381019061009791906106e1565b61014d565b005b6100a6610289565b005b6100b061029d565b6040516100bd919061074f565b60405180910390f35b6100ce6102c6565b6040516100db9190610786565b60405180910390f35b6100fe60048036038101906100f991906107cd565b6102d9565b005b61011a600480360381019061011591906107cd565b610423565b604051610128929190610815565b60405180910390f35b61014b600480360381019061014691906107cd565b6104d9565b005b6000600160003373ffffffffffffffffffffffffffffffffffffffff1673ffffffffffffffffffffffffffffffffffffffff16815260200190815260200160002090506000801b8160000154146101d9576040517f08c379a00000000000000000000000000000000000000000000000000000000081526004016101d09061089b565b60405180910390fd5b818160000181905550428160010160016101000a81548163ffffffff021916908363ffffffff1602179055506000601481819054906101000a900460ff168092919060010191906101000a81548160ff021916908360ff160217905550503373ffffffffffffffffffffffffffffffffffffffff167f209ae2eb4ff1890ce972a80ec3e167b52d41ab089135cc6430447b1430e824be8360405161027d91906108ca565b60405180910390a25050565b61029161055c565b61029b60006105da565b565b60008060009054906101000a900473ffffffffffffffffffffffffffffffffffffffff16905090565b600060149054906101000a900460ff1681565b6102e161055c565b6000600160008373ffffffffffffffffffffffffffffffffffffffff1673ffffffffffffffffffffffffffffffffffffffff16815260200190815260200160002090506000801b81600001540361036d576040517f08c379a000000000000000000000000000000000000000000000000000000000815260040161036490610931565b60405180910390fd5b8060010160009054906101000a900460ff16156103bf576040517f08c379a00000000000000000000000000000000000000000000000000000000081526004016103b69061099d565b60405180910390fd5b60018160010160006101000a81548160ff0219169083151502179055508173ffffffffffffffffffffffffffffffffffffffff167f02f93fdaafad8edad1ca75101b1fbda62e64ab9afc26d0ea801ccf6ef02c09ab60405160405180910390a25050565b6000806000600160008573ffffffffffffffffffffffffffffffffffffffff1673ffffffffffffffffffffffffffffffffffffffff168152602001908152602001600020604051806060016040529081600082015481526020016001820160009054906101000a900460ff161515151581526020016001820160019054906101000a900463ffffffff1663ffffffff1663ffffffff168152505090506000801b8160000151141581602001519250925050915091565b6104e161055c565b600073ffffffffffffffffffffffffffffffffffffffff168173ffffffffffffffffffffffffffffffffffffffff1603610550576040517f08c379a000000000000000000000000000000000000000000000000000000000815260040161054790610a2f565b60405180910390fd5b610559816105da565b50565b61056461069e565b73ffffffffffffffffffffffffffffffffffffffff1661058261029d565b73ffffffffffffffffffffffffffffffffffffffff16146105d8576040517f08c379a00000000000000000000000000000000000000000000000000000000081526004016105cf90610a9b565b60405180910390fd5b565b60008060009054906101000a900473ffffffffffffffffffffffffffffffffffffffff169050816000806101000a81548173ffffffffffffffffffffffffffffffffffffffff021916908373ffffffffffffffffffffffffffffffffffffffff1602179055508173ffffffffffffffffffffffffffffffffffffffff168173ffffffffffffffffffffffffffffffffffffffff167f8be0079c531659141344cd1fd0a4f28419497f9722a3daafe3b4186f6b6457e060405160405180910390a35050565b600033905090565b600080fd5b6000819050919050565b6106be816106ab565b81146106c957600080fd5b50565b6000813590506106db816106b5565b92915050565b6000602082840312156106f7576106f66106a6565b5b6000610705848285016106cc565b91505092915050565b600073ffffffffffffffffffffffffffffffffffffffff82169050919050565b60006107398261070e565b9050919050565b6107498161072e565b82525050565b60006020820190506107646000830184610740565b92915050565b600060ff82169050919050565b6107808161076a565b82525050565b600060208201905061079b6000830184610777565b92915050565b6107aa8161072e565b81146107b557600080fd5b50565b6000813590506107c7816107a1565b92915050565b6000602082840312156107e3576107e26106a6565b5b60006107f1848285016107b8565b91505092915050565b60008115159050919050565b61080f816107fa565b82525050565b600060408201905061082a6000830185610806565b6108376020830184610806565b9392505050565b600082825260208201905092915050565b7f416c726561647920726567697374657265640000000000000000000000000000600082015250565b600061088560128361083e565b91506108908261084f565b602082019050919050565b600060208201905081810360008301526108b481610878565b9050919050565b6108c4816106ab565b82525050565b60006020820190506108df60008301846108bb565b92915050565b7f4e6f742072656769737465726564000000000000000000000000000000000000600082015250565b600061091b600e8361083e565b9150610926826108e5565b602082019050919050565b6000602082019050818103600083015261094a8161090e565b9050919050565b7f416c726561647920766572696669656400000000000000000000000000000000600082015250565b600061098760108361083e565b915061099282610951565b602082019050919050565b600060208201905081810360008301526109b68161097a565b9050919050565b7f4f776e61626c653a206e6577206f776e657220697320746865207a65726f206160008201527f6464726573730000000000000000000000000000000000000000000000000000602082015250565b6000610a1960268361083e565b9150610a24826109bd565b604082019050919050565b60006020820190508181036000830152610a4881610a0c565b9050919050565b7f4f776e61626c653a2063616c6c6572206973206e6f7420746865206f776e6572600082015250565b6000610a8560208361083e565b9150610a9082610a4f565b602082019050919050565b60006020820190508181036000830152610ab481610a78565b905091905056fea26469706673582212203b2f61754e8ff56d819c307f66815d0c50854a6d35e003bcdd23b184e05b128c64736f6c63430008110033",
  "immutableReferences": {},
  "source": "// SPDX-License-Identifier: MIT\r\npragma solidity ^0.8.17;\r\n\r\nimport \"@openzeppelin/contracts/access/Ownable.sol\";\r\n\r\ncontract IdentityManager is Ownable {\r\n    struct Identity {\r\n        bytes32 hashedDocument;  \r\n        bool isVerified;         \r\n        uint32 registrationTime; \r\n    }\r\n    \r\n    uint8 public totalRegistered;\r\n    mapping(address => Identity) private identities;\r\n    \r\n    event IdentityRegistered(address indexed user, bytes32 hashedDocument);\r\n    event IdentityVerified(address indexed user);\r\n    \r\n    function registerIdentity(bytes32 _hashedDocument) public {\r\n        Identity storage identity = identities[msg.sender];\r\n        require(identity.hashedDocument == 0, \"Already registered\");\r\n        \r\n        identity.hashedDocument = _hashedDocument;\r\n        identity.registrationTime = uint32(block.timestamp);\r\n        unchecked { totalRegistered++; }\r\n        \r\n        emit IdentityRegistered(msg.sender, _hashedDocument);\r\n    }\r\n    \r\n    function verifyIdentity(address user) public onlyOwner {\r\n        Identity storage identity = identities[user];\r\n        require(identity.hashedDocument != 0, \"Not registered\");\r\n        require(!identity.isVerified, \"Already verified\");\r\n        \r\n        identity.isVerified = true;\r\n        emit IdentityVerified(user);\r\n    }\r\n    \r\n    function checkIdentity(address user) public view returns (bool, bool) {\r\n        Identity memory identity = identities[user];\r\n        return (identity.hashedDocument != 0, identity.isVerified);\r\n    }\r\n}",
  "sourcePath": "C:\\Users\\DELL\\voting-system-new-sepolia\\contracts\\IdentityManager.sol",
  "compiler": {
    "name": "solc",
    "version": "0.8.17+commit.8df45f5f.Emscripten.clang"
  },
  "schemaVersion": "3.4.13",
  "updatedAt": "2025-01-16T08:03:35.795Z",
  "networkType": "ethereum",
  "devdoc": {
    "kind": "dev",
    "methods": {
      "owner()": {
        "details": "Returns the address of the current owner."
      },
      "renounceOwnership()": {
        "details": "Leaves the contract without owner. It will not be possible to call `onlyOwner` functions. Can only be called by the current owner. NOTE: Renouncing ownership will leave the contract without an owner, thereby disabling any functionality that is only available to the owner."
      },
      "transferOwnership(address)": {
        "details": "Transfers ownership of the contract to a new account (`newOwner`). Can only be called by the current owner."
      }
    },
    "version": 1
  },
  "userdoc": {
    "kind": "user",
    "methods": {},
    "version": 1
  }
}